:030000000213FCEC
:0C13FC00787FE4F6D8FD758121021443CF
:1019AB00495220436F64653A0052313A0052323A41
:0719BB000025303458200024
:101A120041004B0041004C0041004D0044004E008B
:031A2200000000C1
:10197200AD07AC06E412000B120044D3EF9400EE64
:0D1982009400400800EF1F70F21E80EF225D
:0816D500E034FFF07F017E000C
:1016DD00900023EEF0A3EFF0D3900024E09400905F
:1016ED000023E094004015A3E024FFF0900023E0D8
:0D16FD0034FFF07FE87E0312197280DC22BA
:081B7C00AF8CEFFEAD8AEDFF16
:011B8400223E
:081B8500AF8DEFFEAD8BEDFF0B
:011B8D002235
:081B8E00AFD6EFFEADD7EDFF6D
:011B9600222C
:081B9700AFD4EFFEADD5EDFF68
:011B9F002223
:081BA000AFD2EFFEADD3EDFF63
:011BA800221A
:10170A00E49000CCF0A3F053BCF0EF42BC1216D91F
:10171A0043BC40E5BC30E5FB53BCDFAFBDEFFFADDA
:10172A00BEED9000CCCFF0A3EFF09000CCE0FEA38A
:02173A00E0FFCE
:01173C00228A
:1017920075C78375C501EFF5C4EEF5C375C65A75F5
:1017A200C6A500ADC2E4F5C7F5C5F5C675C380F59B
:0317B200C4AF05BC
:0117B5002211
:1017B60075C78375C502EFF5C4EEF5C3AF058FC2D5
:1017C60075C65A75C6A500E4F5C7F5C5F5C675C351
:0417D60080F5C422B4
:1019340075C78375C503EFF5C4EEF5C375C65A754F
:10194400C6A500E4F5C7F5C5F5C675C380F5C42280
:081BA900AFF9EFFEADE9EDFF1D
:011BB1002211
:081BB200AFFAEFFEADEAEDFF12
:011BBA002208
:081BBB00AFFBEFFEADEBEDFF07
:011BC30022FF
:081BC400AFFCEFFEADECEDFFFC
:011BCC0022F6
:081BCD00AFFDEFFEADEDEDFFF1
:011BD50022ED
:1019C200AD0753F2FDED548025E0FFEF42F2ED54F6
:0419D2003FF5FA22C1
:0E1AE10053F2FEEF548042F2EF543FF5EA223A
:101A2600AD0753F2FDE425E0FFEF42F2ED547FF5FA
:021A3600FA2292
:091BD60053F2FEEF547FF5EA2200
:101A9100AD0753F2FDE425E0FFEF42F2EDF5FA2246
:071BFA0053F2FEEFF5EA22B1
:1018B000AD07AC0653F2CDEC5403C4F854F0C8E4C1
:1018C000C4540F48FBEC5404C3134B42F2EDF5FA39
:0118D00022F5
:1017DA00AD07AC0653F2F2EC5403FEE47806CEC32E
:1017EA0013CE13D8F9FBEC54041313543F4B42F2B3
:0417FA00EDF5EA22FD
:1019D600AD0753F3FDED548025E0FFEF42F3ED54E0
:0419E6003FF5FB22AC
:0E1AEF0053F3FEEF548042F3EF543FF5EB2229
:101A3800AD0753F3FDE425E0FFEF42F3ED547FF5E6
:021A4800FB227F
:091BDF0053F3FEEF547FF5EB22F5
:101AA100AD0753F3FDE425E0FFEF42F3EDF5FB2233
:071C010053F3FEEFF5EB22A7
:1018D100AD07AC0653F3CDEC5403C4F854F0C8E49F
:1018E100C4540F48FBEC5404C3134B42F3EDF5FB16
:0118F10022D4
:1017FE00AD07AC0653F3F2EC5403FEE47806CEC309
:10180E0013CE13D8F9FBEC54041313543F4B42F38D
:04181E00EDF5EB22D7
:1019EA00AD0753F4FDED548025E0FFEF42F4ED54CA
:0419FA003FF5FC2297
:0E1AFD0053F4FEEF548042F4EF543FF5EC2218
:101A4A00AD0753F4FDE425E0FFEF42F4ED547FF5D2
:021A5A00FC226C
:091BE80053F4FEEF547FF5EC22EA
:101AB100AD0753F4FDE425E0FFEF42F4EDF5FC2220
:071C080053F4FEEFF5EC229E
:1018F200AD07AC0653F4CDEC5403C4F854F0C8E47D
:10190200C4540F48FBEC5404C3134B42F4EDF5FCF2
:0119120022B2
:10182200AD07AC0653F4F2EC5403FEE47806CEC3E3
:1018320013CE13D8F9FBEC54041313543F4B42F468
:04184200EDF5EC22B2
:1019FE00AD0753F5FDED548025E0FFEF42F5ED54B4
:041A0E003FF5FD2281
:0E1B0B0053F5FEEF548042F5EF543FF5ED2206
:101A5C00AD0753F5FDE425E0FFEF42F5ED547FF5BE
:021A6C00FD2259
:091BF10053F5FEEF547FF5ED22DF
:101AC100AD0753F5FDE425E0FFEF42F5EDF5FD220D
:071C0F0053F5FEEFF5ED2295
:10191300AD07AC0653F5CDEC5403C4F854F0C8E45A
:10192300C4540F48FBEC5404C3134B42F5EDF5FDCF
:011933002291
:10184600AD07AC0653F5F2EC5403FEE47806CEC3BE
:1018560013CE13D8F9FBEC54041313543F4B42F543
:04186600EDF5ED228D
:0415F50090FE81F0F3
:1015F9009000CE7403F0A374E8F090FE82E05440AA
:10160900701CD39000CFE094009000CEE09400408D
:101619000DA3E024FFF09000CE1216D580DC90FED9
:0516290082E054BFF057
:01162E002299
:0C1B340043BA8074011215F553BA7F22E9
:0C1B400043BA8074061215F553BA7F22D8
:1019540043BA8090FE86EFF090FE817402F0121577
:0E196400F990FE817403F01215F953BA7F2238
:051668009000D0EFF03E
:10166D00E4A3F043BA8090FE817404F01215F99052
:10167D00FE87E09000D1F09000D0E0F490FE82F073
:10168D0090FE817405F01215F953BA7F9000D1E0E8
:01169D00FF4D
:01169E002229
:1015B700E49000C9F0A304F0A3742CF08FCFE5CD1D
:1015C70020E71CD39000CBE094009000CAE0940081
:1015D700400DA3E024FFF09000CA1216D580DF4328
:0D15E700CD8043CD409000C9E5CFF0E0FF7E
:0115F40022D4
:06103D009000941206C1B0
:1010430090009E1206CD00000000759850E47F04C6
:10105300FEFDFC900094E0F8A3E0F9A3E0FAA3E01E
:10106300FB120583A804A905AA06AB0790009AE022
:10107300FCA3E0FDA3E0FEA3E0FF12060E90009E9A
:101083001206C1900099E06401701D90009EE0FC7F
:10109300A3E0FDA3E0FEA3E0FFE47B0CFAF9F81262
:1010A300060E90009E1206C190009EE0F8A3E0F9A0
:1010B300A3E0FAA3E0FBC3E49BFFE49AFE74019967
:1010C300FDE498FC90009E1206C1900098E07032F7
:1010D300A3E07008538EF3438E048003538EF39082
:1010E300009EA3A3A3E0FF8FD790009EE0FCA3E0A4
:1010F300FDA3E0FEA3E0FF78081206AE8FD6438E71
:101103001022900099E0538EBF438E40538FFD53BE
:10111300890F90009EA3A3A3E0FF8F8B90009EE016
:10112300FCA3E0FDA3E0FEA3E0FF78081206AE8F68
:041133008D43884020
:011137002295
:0C1B4C008F99E598540260FA5398FD222E
:061C16005398FEAF992275
:0911FE009000C0EDF0AB07AA0659
:101207009000C51206CD00000000759A10AE02EBE3
:101217007802C333CE33CED8F9FBAA06E4F9F890A7
:1012270000C1E0FCA3E0FDA3E0FEA3E0FF12060E71
:101237009000C51206C19000C0E06401701D9000C7
:10124700C5E0FCA3E0FDA3E0FEA3E0FFE47B0CFA0E
:10125700F9F812060E9000C51206C19000C5E0F815
:10126700A3E0F9A3E0FAA3E0FBC3E49BFFE49AFE43
:10127700740199FDE498FC9000C51206C19000C066
:10128700E07008538EF3438E048003538EF390006F
:10129700C5A3A3A3E0FF8FD79000C5E0FCA3E0FDA3
:1012A700A3E0FEA3E0FF78081206AE8FD6438E10A8
:0112B7002214
:0C1B58008F9BE59A540260FA539AFD221C
:061C1C00539AFEAF9B226B
:060E3B009000A21206C1A6
:100E41009000AC1206CD000000009000A6E0441016
:100E5100F5ACE47F04FEFDFC9000A2E0F8A3E0F90C
:100E6100A3E0FAA3E0FB120583A804A905AA06AB37
:100E7100079000A8E0FCA3E0FDA3E0FEA3E0FF12C1
:100E8100060E9000AC1206C19000A7E06401701D2F
:100E91009000ACE0FCA3E0FDA3E0FEA3E0FFE47B57
:100EA1000CFAF9F812060E9000AC1206C19000ACD3
:100EB100E0F8A3E0F9A3E0FAA3E0FBC3E49BFFE4BD
:100EC1009AFE740199FDE498FC9000AC1206C19061
:100ED10000A6E07032A3E07008538EF3438E0480C5
:100EE10003538EF39000ACA3A3A3E0FF8FD7900030
:100EF100ACE0FCA3E0FDA3E0FEA3E0FF780812064E
:100F0100AE8FD6438E10229000A7E0700853D1F81F
:100F110043D102800353D1F89000ACA3A3A3E0FF17
:100F21008FD59000ACE0FCA3E0FDA3E0FEA3E0FFC1
:0A0F310078081206AE8FD443D108F1
:010F3B002293
:0C1B64008FADE5AC540260FA53ACFD22DA
:061C220053ACFEAFAD2241
:060F3C009000B01206C196
:100F42009000BA1206CD000000009000B4E04410F8
:100F5200F584E47F04FEFDFC9000B0E0F8A3E0F924
:100F6200A3E0FAA3E0FB120583A804A905AA06AB35
:100F7200079000B6E0FCA3E0FDA3E0FEA3E0FF12B1
:100F8200060E9000BA1206C19000B5E06401701D11
:100F92009000BAE0FCA3E0FDA3E0FEA3E0FFE47B47
:100FA2000CFAF9F812060E9000BA1206C19000BAB5
:100FB200E0F8A3E0F9A3E0FAA3E0FBC3E49BFFE4BB
:100FC2009AFE740199FDE498FC9000BA1206C19051
:100FD20000B4E07032A3E07008538EF3438E0480B5
:100FE20003538EF39000BAA3A3A3E0FF8FD7900020
:100FF200BAE0FCA3E0FDA3E0FEA3E0FF780812063E
:10100200AE8FD6438E10229000B5E0700853D18F78
:1010120043D120800353D18F9000BAA3A3A3E0FF52
:101022008FD39000BAE0FCA3E0FDA3E0FEA3E0FFB3
:0A10320078081206AE8FD243D18079
:01103C002291
:0C1B70008F85E584540260FA5384FD2246
:061C28005384FEAF85228B
:1014880053B1DF53B2DF53B1DF43B22053B1BF537F
:10149800B2BF53B1BF43B24053B17F53B27F53B1D0
:1014A8007F43B2805393EF5394EF5393EF439410D9
:1014B8005393DF5394DF5393DF4394205393BF53E5
:1014C80094BF5393BF43944053937F53947F539354
:1014D8007F43948053B0BF53B0DF7F0A7E0012165B
:1014E800DD121AD1E4FD7F33121A80E4FD7F321237
:1014F8001A80E4FD7F28121A80E4FD7F0C121A80FE
:0A150800121B19E4FD7F06021A8091
:101A8000ED600814700843B020800353B0DF0212E9
:011A9000B89D
:0512B800900022EFF0A0
:1012BD00EF5480C4131313540114700543808080C0
:1012CD000353807F900022E0FF5440C41313540356
:1012DD0014700543804080035380BFEF5420C41326
:1012ED00540714700543802080035380DF90002243
:1012FD00E05410FFC4540FFE14700543801080039A
:10130D005380EF121AD1900022E0FF5408131313EB
:10131D00541F147005438080800353807FEF540465
:10132D001313543F14700543804080035380BF90C6
:10133D000022E0FF5402C313147005438020800384
:10134D005380DFEF5401FE1470054380108003536A
:05135D0080EF021AD12F
:101A6E00900020EBF012169F900020E0FF7D010207
:021A7E001A80CC
:08156E007B017A0079077D0181
:1015760090001BEFF0A3EDF0A3EBF0A3EAF0A3E9D4
:10158600F090001DE0FBA3E0FAA3E0F91205156058
:101596001F90001BE0FF04F0A3E0FDA3A3E475F099
:1015A6000112056DA9F0FA120515FB121A6E80D10B
:0115B6002212
:0E1B1900E4FD7F01121A80E4FD7F02021A80B3
:10169F00900021EFF0ED24FE600F1460142402700F
:1016AF0018900021E024408014900021E024148041
:1016BF000C900021E024548004900021E04480FF2E
:0616CF00E4FD121A802266
:101AD10043B0801216D953B07F7F017E000216DD1C
:03000300021512D1
:10151200C0E0C083C082C0D075D000C005C006C084
:1015220007121B7C90004BE025E02452F582E43444
:1015320000F583EEF0A3EFF090004BE004F0438857
:1015420010E0C3942174809480400C90004D74018B
:10155200F053A87F5388EF758A00758C00D007D0AE
:0C15620006D005D0D0D082D083D0E0327B
:100BC700E4900000F0A3F0A3F0A3F0A3F0A3F0A338
:100BD700F012113812188E7BFF7A1979ABE4FDFFFA
:100BE7001215767BFF7A1979B47D01E4FF12157629
:100BF7007BFF7A1979B87D017F0912157612188E55
:100C070090004DE07003020CCE12198F900003EE96
:100C1700F0A3EFF090001E74FFF0A37419F0A37413
:100C2700BCF0A3EEF0A3EFF07B017A00790712077F
:100C3700A97B017A007907E4FD7F0C1215769000F5
:100C47004CE024FE601404702E900003E0FCA3E047
:100C570090004FF0EC90004E800F900003E0FCA353
:100C6700E0900051F0EC900050F012173D53C8DFB0
:100C7700E490004CF08047121B27900005EEF0A38C
:100C8700EFF0900003E0B5060BA3E0B50706900070
:100C970001E0F4F0900050121B2A900005EEF0A33B
:100CA700EFF0900003E0B5060BA3E0B50706900050
:100CB70002E0F4F0E4900003F0A3F053C8DF12164B
:100CC7002F43A880020C07121B27900005EEF0A304
:100CD700EFF090001E74FFF0A37419F0A374BCF03A
:100CE700A3EEF0A3EFF07B017A0079071207A97F43
:100CF7000312156E900050121B2A900005EEF0A308
:100D0700EFF090001E74FFF0A37419F0A374BCF009
:100D1700A3EEF0A3EFF07B017A0079071207A97F12
:100D27000C12156EE5C820E0477FA07E0F1216DD76
:100D3700E5C820E03B53C8DFE4900000F0900000D6
:100D4700E0FFC3940274809480501C744E2FF58288
:100D5700E43400F58374FFF07F647E0012186A9014
:100D67000000E004F080D6E4FFFE12193453C8DF18
:100D7700E5C820E24DE5C830E2FB7F5A7E00121637
:100D8700DDE5C820E23653C8DF90004C7401F07FE0
:100D9700647E001216DDE4900000F0900000E0C3CE
:100DA700940474809480500F7F287E0012186A90F4
:100DB7000000E004F080E443C8208006900001E0D2
:100DC700F4F0E5C820E34DE5C830E3FB7F5A7E0029
:100DD7001216DDE5C820E33653C8DF90004C7402D5
:100DE700F07F647E001216DDE4900000F0900000B2
:100DF700E0C3940474809480500F7F287E001218FB
:100E07006A900000E004F080E443C8208006900068
:100E170002E0F4F0900001E070055390BF800343B7
:100E27009040900002E0700653907F020C074390B9
:040E370080020C0722
:1011380043BA80800090FE027480F090FE02E05472
:101148000160F890FE017402F090FE00E4F0E044C3
:1011580010F0E054F7F053BA7F12162F53C9FE531C
:10116800CAFE43C90153CAFE43BA8090FE15E04443
:1011780001F053BA7F53C9FB53CAFB43C90453CA8E
:10118800FB43BA80E04404F053BA7F53C9F753CA0B
:10119800F743C90853CAF743BA80E04408F053BA82
:1011A8007F5391BF5392BF5391BF43924053917F56
:1011B80053927F53917F43928053C9DF53CADF53C1
:1011C800C9DF43CA20E4F5C7F5C5F5C675C380F580
:1011D800C4538E7F538FFE5389F043890953B7FE5A
:1011E80053B8FE43880143A80143A880121488120B
:0611F8001B1953C8DF22A1
:10162F00E490004BF090004BE0FFC3942174809442
:10163F00805018EF25E02452F582E43400F583E45E
:10164F00F0A3F090004BE004F080DAE4F58AF58C1B
:09165F0090004DF090004BF022C8
:10136200E4FE90004BEFF090004BE0FFD39D400372
:101372000213F9EE25E0FEEF25E02452F582E43473
:1013820000F583E0FAA3E0FBC3949CEA9404400FC7
:10139200D3EB9498EA94085006EE4401FE804F90F5
:1013A200004BE025E02452F582E43400F583E0FAB4
:1013B200A3E0FBC3948AEA9401400BD3EB94DCEAEA
:1013C20094025002802890004BE025E02452F582DE
:1013D200E43400F583E0FAA3E0FBC3944EEA940CF4
:1013E200400CD3EB94DAEA941650037FFF2290006C
:0913F2004BE004F0021369AF06A0
:0113FB0022CF
:10198F00E4FEFC7D097F02121362AC077D197F1202
:0C199F00121362AE07AF04AD06021B2F4E
:10186A0090001BEEF0A3EFF043C82090001BE0FEAF
:10187A00A3E0FF1216DD53C8DF90001BE0FEA3E0D1
:04188A00FF0216DD66
:10173D00E4FCFFFE1219347F0A1216DDE4FCECFF07
:10174D007E00C39404748094805012744E2CF582E4
:0D175D00E43400F583E0FD1217B60C80E1C6
:01176A00225C
:10188E00E4FCECFF7E00C39404748094805012122A
:10189E001792744E2CF582E43400F583EFF00C8031
:0118AE00E158
:0118AF002216
:081B270090004EE0FFA3E0FD79
:041B2F00EFFEEDFFD9
:011B3300228F
:1000060075F020800E75F010800575F0087D007E75
:10001600007F003392D530D5031206A0EC33401092
:10002600EF33FFEE33FEED33FDEC33FCD5F0ED227E
:0E003600E5F0247EA2D513CC92E7CDCEFF22BA
:10004400EDD2E7CD33EC3392D524814006E4FFFEB4
:10005400FDFC22FCE4CFCECDCC24E0501174FF8013
:10006400EDC3CC13CCCD13CDCE13CECF13CF0470B0
:07007400F030D5DE0206A00A
:10074400E508241EF582E43400F583E005082290D0
:10075400001B30070390001EE475F0011206FE0230
:1007640005152000E97F2ED2008018EF540F249045
:10077400D43440D4FF30040BEF24BFB41A00500328
:100784002461FFE50960021509050CE50C700205FA
:100794000B30070E90001BE475F0011206FEEF0209
:1007A400055B02176B7403D2078003E4C207F508E4
:1007B40090001B120715E4F509F50BF50CE509602B
:1007C400077F2012078780F5750AFFC201C200C2A5
:1007D40002C203C205C206C208120753FF700D30DD
:1007E40007057F00120798AF0CAE0B22B4255FC239
:1007F400D5C204120753FF24D0B40A00501A75F06E
:100804000A780930D50508B6FF0106C6A426F620E5
:10081400D5047002D20380D924CFB41A00EF500457
:10082400C2E5D204020A8AD20180C6D20080C0D2B4
:100834000280BCD2D580BAD20580B47F201207874B
:100844002002077401B5090040F1120744FF1207A2
:10085400870207C1D208D2068095120744FB12070B
:1008640044FA120744F94A4B700679887A0B7BFFE5
:1008740020022EE509602A7E008E8275830012050F
:100884002E60060EEE650A70F0C2D5EBC0E0EAC039
:10089400E0E9C0E0EE120AEBD0E0F9D0E0FAD0E0F3
:1008A400FB120515FF60AAEBC0E0EAC0E0E9C0E076
:1008B400120787D0E02401F9D0E03400FAD0E0FB3D
:1008C400E50A0460DCD50AD98087D20280A2120A24
:1008D400CD60F7E50A70010412007BA90A600DE5FA
:1008E4000A600914F50A120B75EF60F3EA30E702A7
:1008F400F404C3995079EAF4250A0430E701E404C6
:10090400F50A800D120ACD60C1EA050A250A120013
:100914007BEA90004AF030E701E4250A04D50A0492
:1009240020050114120AEBE4C0E0120B7590004A92
:10093400E0601320E70714F012076F802204F0D060
:10094400E014C0E07F0012076FE50A600712076633
:10095400150A800B300503120766D0E00207C1D0E8
:10096400E00480C4120ACD609EE50A0412007B9064
:10097400004AEAF0E50A2005026001042404120A90
:01098400EB87
:1009850074FF04C0E0120B7512076FE50A2005021B
:100995006003120766D0E0B50AE87F451207799033
:1009A500004AE07F2B30E7047F2DF404C0E01207F6
:1009B50087D0E075F00A84C0F0120770D0E0120706
:1009C500700207C1791080027908C206C208800842
:1009D500D2D5790A8004790AC2D5E50A047002F5F0
:1009E5000AE4FAFDFEFF120744FC7B0820011312FE
:1009F5000744FD7B1030000A120744FE120744FF2E
:100A05007B20EC3382D592D55013C3E43000069F8A
:100A1500FFE49EFEE42001039DFDE49CFCE4CBF88D
:100A2500C201EC700CCFCECDCCE824F8F870F38081
:100A350017C3EF33FFEE33FEED33FDEC33FCEB3341
:100A4500FB994002FB0FD8E9EB300105F8D0E0C473
:100A550048B201C0E00AEC4D4E4F78207B0070C2D1
:100A6500EAB50A0040BCC0E0120AEDD0F0D0E020A3
:100A75000104C4C0E0C4B201C0F0120770D0F0D5C3
:100A8500F0EB0207C112071E085E5309C958082F6B
:100A95004C082B4209CD4F09D54409D54908444393
:100AA50009DB5509084609684508D2470BA85008CF
:100AB500332D08372E085A2B083B230858200B9155
:100AC5002A07F34800000852E50AB4FF03750A0631
:100AD500120744FC120744FD120744FE120744FFA7
:100AE5009000430200B8790AA2D520031430050905
:100AF500B910020404B9080104A2D5200602500168
:100B0500042002689202B509005034C0E07F20300D
:100B150003197F30A20272067205500F120B44C2F0
:100B250002C206C205C2087F30800F300503E9C046
:100B3500E0120787300503D0E0F9D0E0B509CC30E5
:100B450005177F30B9100C1207877F583004077FCF
:100B5500788003B908031207873002057F2D020745
:100B6500877F202008F87F2B2006F322920280CF72
:100B75007F00B40700500B2443F582E43400F5836D
:100B8500E0FF22286E756C6C2900D20112074430F3
:100B950001F8C201780930D50108F60207F32D5096
:100BA5004349581207442403B405004001E4900B5F
:100BB500A393120778743A120778D20375090402D1
:020BC50009C95C
:10007B00F920E73624F950037907E4F42402FBE571
:10008B0082158270021583DBF6E024FB501BE960BE
:10009B0014E4F0E582158270021583E004F0B40AD3
:0D00AB0008E4F0D9EE7401F00A22C2D5225B
:1000B800ED33EC3392D5FA602AB4FF33EDC2E77B17
:1000C800FF60067A0079DDE4227A0079E620D5041B
:1000D8007A0079E1224E614E002B494E46002D49A7
:1000E8004E4600E47A08F0A3DAFC7B00740722C0CD
:1000F80083C082ECC0E0EDC0E0EEC0E0EFC0E0EA13
:1001080075F010A4CAABF075F04DA42BFBE435F0E4
:10011800FCEA2410FAEB34C5FBEC34D9FCEDC2E759
:10012800FF75F056A4F42411C5F0F434C58FF0A47B
:100138002AE5F03BE43CF020E71412048BD0E0FF02
:10014800D0E0FED0E0FDD0E0FC1203BE8014F40441
:1001580012048BD0E0FFD0E0FED0E0FDD0E0FC122E
:1001680002B5D082D083E0FAEDD2E7CD33EC332468
:1001780082FBE4C3CF33CFCE33CECD33CD33DBF3E5
:100188007B0775F00A846004F0A31B0AE5F0F0A36E
:100198008FF0740AA4FFACF08EF0740AA42CFEACA5
:1001A800F050010C8DF0740AA42CFDE435F0F0A396
:0501B800DBDE740722EC
:1001BD00020500E86480F8E933E83360110460F06B
:1001CD00ED33EC337009E8FCE9FDEAFEEBFF2204A8
:1001DD0060DED3EB9FEA9EE99DE8C2E78CF0C2F7A3
:1001ED0095F0400CE8CCF8E9CDF9EACEFAEBCFFB6F
:1001FD001204CB85D0F05804700320D5B3E80470F9
:10020D00075002B2D502050A92D5EC0460F7E4CC92
:10021D00C0E0C398F8603B94186008400DD0E0FB37
:10022D000204E2E4FBFAC9FC8028E830E406E4C9E4
:10023D00FBE4CAFCE830E305E4C9CACBFCE854078B
:10024D006010F8C3E913F9EA13FAEB13FBEC13FC96
:10025D00D8F130F52FC3E49CFCEF9BFFEE9AFEED39
:10026D0099FDD0E0FBEF4E4D4C701222DB030205E1
:10027D0007EC2CFCEF33FFEE33FEED33FDED30E7F5
:10028D00EB0204E2EF2BFFEE3AFEED39FDD0E0FB81
:10029D0050130BBB000302050AED13FDEE13FEEF29
:0802AD0013FFEC13FC0204E254
:1002B500EC4D6011E8497017ED33EC3304600DE443
:1002C500FCFFFEFD22E933E8330470F80205001255
:1002D50004CB58046009E4CC248150062850090257
:1002E500050A284003020507C0E0EB4A7044B980BF
:1002F50006D0E0FB0204F6EF4E701CBD8008EBFF54
:10030500EAFEE9FD80EBE98DF0A4FEE5F002039E2F
:10031500E9CDF9EAFEEBFFEF89F0A4FCE5F0CE8923
:10032500F0A42EFFE435F0CD89F0A42DFEE435F0E0
:100335008067EF4E7005BD80D780C3EF8BF0A4AC0E
:10034500F0EE8BF0A42CFCE435F0F8EF8AF0A42C49
:10035500E5F038FCE433CB8DF0A42CFCE5F03BF85C
:10036500EE8AF0A42CFCE5F038F8E433CF89F0A44C
:100375002CFCE5F038CF3400CE89F0A42FFFE5F052
:100385003EFEE433C98DF0A42EFEE5F039CD8AF0AA
:10039500A42FFFE5F03EFEE43DFD33D0E0FB500722
:1003A5000BBB000F02050AEC2CFCEF33FFEE33FE0E
:0603B500ED33FD0204E23D
:1003BB0002050AEC5D046005E859047003020500B0
:1003CB001204CB580460F6EC4860F2EC7004FDFEAE
:1003DB00FF22C860DB2481C85009C3986002500615
:1003EB000205079850CAF582E9294B4A7005AB8282
:1003FB000204F675F0007C1A7880C3EF9BEE9AED41
:10040B0099400DC3EF9BFFEE9AFEED99FDE842F08C
:10041B00DC23ACF0D0E0FFD0E0FED0E0FDAB8220DF
:10042B00E7101BEB60BAEC2CFCEF33FFEE33FEED69
:10043B0033FD0204E2E803F830E705C0F075F00085
:10044B00EF2FFFEE33FEED33FD40B830E7C280AA4D
:10045B003F8000004120000042C80000447A0000A9
:10046B00461C400047C35000497424004B1896802B
:10047B004CBEBC205A0E1BCA6753C21C749DC5AE22
:10048B00FB60065407601C23231204B9EB5438603D
:10049B00091204A51204B41202B5ECF8EDF9EEFA48
:1004AB00EFCB22EB1204B480F1543803241C9004DC
:1004BB005BFE93FC0EEE93FD0EEE930ECE93FF229E
:1004CB00E9D2E7C933E833F892D5EDD2E7CD33EC77
:0704DB0033FC5002B2D522F0
:1004E200EC30E7100FBF000C0EBE00080DBD00047B
:1004F2000BEB6014A2D5EB13FCED92E7FD2274FF27
:10050200FCFDFEFF22E480F8A2D574FF13FC7D807F
:03051200E480EF93
:10140800020BC7E493A3F8E493A34003F68001F228
:1014180008DFF48029E493A3F85407240CC8C333E5
:10142800C4540F4420C8834004F456800146F6DFB4
:10143800E4800B0102040810204080901A12E47E18
:10144800019360BCA3FF543F30E509541FFEE493A9
:10145800A360010ECF54C025E060A840B8E493A370
:10146800FAE493A3F8E493A3C8C582C8CAC583CA9B
:10147800F0A3C8C582C8CAC583CADFE9DEE780BE53
:011A250000C0
:10051500BB010689828A83E0225002E722BBFE02E4
:09052500E32289828A83E4932217
:10052E00BB010CE58229F582E5833AF583E0225082
:10053E0006E92582F8E622BBFE06E92582F8E222CC
:0D054E00E58229F582E5833AF583E49322E6
:10055B00BB010689828A83F0225002F722BBFE017F
:02056B00F32279
:10056D00A3F8E0C5F025F0F0E58215827002158341
:06057D00E0C838F0E8229E
:10058300E88FF0A4CC8BF0A42CFCE98EF0A42CFC17
:100593008AF0EDA42CFCEA8EF0A4CDA8F08BF0A495
:1005A3002DCC3825F0FDE98FF0A42CCD35F0FCEBF4
:1005B3008EF0A4FEA9F0EB8FF0A4CFC5F02ECD39B9
:0F05C300FEE43CFCEAA42DCE35F0FDE43CFC2226
:1005D20075F008758200EF2FFFEE33FECD33CDCCE0
:1005E20033CCC58233C5829BED9AEC99E582984063
:1005F2000CF582EE9BFEED9AFDEC99FC0FD5F0D640
:10060200E4CEFBE4CDFAE4CCF9A88222B800C1B969
:100612000059BA002DEC8BF084CFCECDFCE5F0CBA7
:10062200F97818EF2FFFEE33FEED33FDEC33FCEBE0
:1006320033FB10D703994004EB99FB0FD8E5E4F99B
:10064200FA227818EF2FFFEE33FEED33FDEC33FC88
:10065200C933C910D7059BE99A4007EC9BFCE99A7C
:10066200F90FD8E0E4C9FAE4CCFB2275F010EF2FC1
:10067200FFEE33FEED33FDCC33CCC833C810D707C1
:100682009BEC9AE899400AED9BFDEC9AFCE899F8FC
:0E0692000FD5F0DAE4CDFBE4CCFAE4C8F9228F
:0E06A000C3E49FFFE49EFEE49DFDE49CFC226B
:1006AE00E8600FECC313FCED13FDEE13FEEF13FF2A
:0306BE00D8F1224E
:0C06C100ECF0A3EDF0A3EEF0A3EFF022AC
:1006CD00A8828583F0D083D0821206E41206E4124C
:1006DD0006E41206E4E473E493A3C583C5F0C58371
:1006ED00C8C582C8F0A3C583C5F0C583C8C582C877
:0106FD0022DA
:1006FE00F8E0FBA3A3E0F925F0F0E5821582700285
:07070E001583E0FA38F02228
:09071500EBF0A3EAF0A3E9F022E5
:10071E00D083D082F8E4937012740193700DA3A36A
:10072E0093F8740193F5828883E47374029368607E
:06073E00EFA3A3A380DF7E
:10176B00EFB40A07740D121776740A309811A89902
:10177B00B8130CC2983098FDA899C298B811F630DE
:07178B0099FDC299F59922B6
:00000001FF
